{
  "contractName": "Box",
  "abi": [
    {
      "anonymous": false,
      "inputs": [
        {
          "indexed": false,
          "internalType": "uint256",
          "name": "newValue",
          "type": "uint256"
        }
      ],
      "name": "ValueChanged",
      "type": "event"
    },
    {
      "inputs": [
        {
          "internalType": "uint256",
          "name": "newValue",
          "type": "uint256"
        }
      ],
      "name": "store",
      "outputs": [],
      "stateMutability": "nonpayable",
      "type": "function"
    },
    {
      "inputs": [],
      "name": "retrieve",
      "outputs": [
        {
          "internalType": "uint256",
          "name": "",
          "type": "uint256"
        }
      ],
      "stateMutability": "view",
      "type": "function"
    }
  ],
  "bytecode": "0x608060405234801561001057600080fd5b5060fe8061001f6000396000f3fe6080604052348015600f57600080fd5b506004361060325760003560e01c80632e64cec11460375780636057361d146053575b600080fd5b603d607e565b6040518082815260200191505060405180910390f35b607c60048036036020811015606757600080fd5b81019080803590602001909291905050506087565b005b60008054905090565b806000819055507f93fe6d397c74fdf1402a8b72e47b68512f0510d7b98a4bc4cbdf6ac7108b3c59816040518082815260200191505060405180910390a15056fea2646970667358221220012e6d7e83c871f810b22834f9694f82c7bb4e8495e4a1495766646ed8efcbaa64736f6c634300060c0033",
  "immutableReferences": {},
  "source": "// contracts/Box.sol\n// SPDX-License-Identifier: MIT\npragma solidity ^0.6.0;\n\ncontract Box {\n    uint256 private value;\n\n    // Emitted when the stored value changes\n    event ValueChanged(uint256 newValue);\n\n    // Stores a new value in the contract\n    function store(uint256 newValue) public {\n        value = newValue;\n        emit ValueChanged(newValue);\n    }\n\n    // Reads the last stored value\n    function retrieve() public view returns (uint256) {\n        return value;\n    }\n}\n",
  "sourcePath": "/home/igor/learn/contracts/Box.sol",
  "compiler": {
    "name": "solc",
    "version": "0.6.12+commit.27d51765.Emscripten.clang"
  },
  "schemaVersion": "3.4.1",
  "updatedAt": "2021-06-12T13:25:45.408Z",
  "devdoc": {
    "kind": "dev",
    "methods": {},
    "version": 1
  },
  "userdoc": {
    "kind": "user",
    "methods": {},
    "version": 1
  }
}